:020000040000FA
:0600000075EF0FF0120085
:020006001200E6
:0600080023EF0CF01200D2
:02000E000200EE
:100010003A1F00008000000012000000381F00009E
:080020009C000000020000003A
:08002800D9CFE6FFE1CFD9FFBB
:10003000090EE126070EDB6A080EDB6A070EDBCF2E
:1000400014F0DB2A080EDBCF15F001E3DB2A166A79
:10005000D950FC0FE96EFF0EDA20EA6EEE50142440
:10006000F36EEE501520F46EEE501620F86EF4CFBD
:10007000F7FFF3CFF6FF0800040EF5CFDBFF070E06
:10008000DBCF14F0DB2A080EDBCF15F001E3DB2A0F
:10009000166AD950FC0FE96EFF0EDA20EA6EEE50B8
:1000A0001424F36EEE501520F46EEE501620F86E08
:1000B000F4CFF7FFF3CFF6FF0800030EF5CFDBFF19
:1000C000070EDBCF14F0DB2A080EDBCF15F001E3BF
:1000D000DB2A166AD950FC0FE96EFF0EDA20EA6EB1
:1000E000EE501424F36EEE501520F46EEE501620F0
:1000F000F86EF4CFF7FFF3CFF6FF0800060EF5CF4A
:10010000DBFF070EDBCF14F0DB2A080EDBCF15F088
:1001100001E3DB2A166AD950FC0FE96EFF0EDA20E4
:10012000EA6EEE501424F36EEE501520F46EEE508D
:100130001620F86EF4CFF7FFF3CFF6FF0800050E98
:10014000F5CFDBFFDBCF16F0060EDBCF17F0F80E96
:10015000DB501624146EF90EDB501720156E1406B2
:10016000000E155A14C0E6FF15C0E6FF030EDBCFE4
:100170001AF0040EDBCF1BF0FA0EDB501A24186EB7
:10018000FB0EDB501B20196E1806000E195A18C002
:10019000E6FF19C0E6FFF80EDBCFE6FFF90EDBCF76
:1001A000E6FFFA0EDBCFE6FFFB0EDBCFE6FFB2EC9D
:1001B00007F01C6E080EE15E1C5080828090050ED8
:1001C000DBCF08F0060EDBCF09F0DE5208C0DEFF01
:1001D00009C0DDFFDD52D950010FE96EDACFEAFF29
:1001E000000ED880EE54000EED5450E2030EDB50AA
:1001F000DF6EDF50000844E2070EDBCF14F0DB2A8D
:10020000080EDBCF15F001E3DB2A166AD950FC0F8C
:10021000E96EFF0EDA20EA6EEE501424F36EEE5013
:100220001520F46EEE501620F86EF4CFF7FFF3CFE2
:10023000F6FF0800F550826E8094070EDBCF14F0B5
:10024000DB2A080EDBCF15F001E3DB2A166AD95052
:10025000FC0FE96EFF0EDA20EA6EEE501424F36E06
:10026000EE501520F46EEE501620F86EF4CFF7FF26
:10027000F3CFF6FF0800F550836E8084DF06B9D710
:10028000010EDB06020E01E2DB06A5D78080090E17
:10029000E15C02E2E16AE552E16EE552E7CFD9FFA7
:1002A0001200D9CFE6FFE1CFD9FF100EE126F90EFB
:1002B000DBCF16F0FA0EDBCF17F0FD0EDB50165C2D
:1002C000146EFE0EDB501758156E14C0DEFF15C0FD
:1002D000DDFFF70EDBCF16F0F80EDBCF17F0FB0ECD
:1002E000DB50165C146EFC0EDB501758156E020EB8
:1002F00014C0DBFF030E15C0DBFFDECF14F0DDCF33
:1003000015F0153404E214500008000E155408E2EC
:10031000010EF36E040EF3CFDBFF050EDB6A10D087
:10032000D9CFE9FFDACFEAFFEE50ED1005E1040E78
:10033000DB6A050EDB6A04D0040EDB68050EDB68A1
:10034000020EDBCF14F0030EDBCF15F0153404E200
:1003500014500008000E155408E2010EF36E060E4C
:10036000F3CFDBFF070EDB6A11D0D950020FE96E25
:10037000DACFEAFFEE50ED1005E1060EDB6A070E5C
:10038000DB6A04D0060EDB68070EDB68DECF16F0F2
:10039000DDCF17F0173404E216500008000E175492
:1003A00005E2DECF14F0DDCF15F008D0DECF14F07B
:1003B000DDCF15F0000E146C151E152214C0DEFFE3
:1003C00015C0DDFF020EDBCF16F0030EDBCF17F0FA
:1003D000173404E216500008000E175407E2020E0C
:1003E000DBCF14F0030EDBCF15F00AD0020EDBCF0B
:1003F00014F0030EDBCF15F0146C151E000E152241
:10040000020E14C0DBFF030E15C0DBFFDECF16F0BB
:10041000DDCF17F0020EDBCF18F0030EDBCF19F0A3
:1004200017501918E8AE02D0193404D01850165CD1
:100430001950175805E3DECF14F0DDCF15F006D0C4
:10044000020EDBCF14F0030EDBCF15F00C0E14C040
:10045000DBFF0D0E15C0DBFF0E0EDB6A0F0EDB6A35
:10046000080EDB6A090EDB6A0A0EDB6A0B0EDB6A1A
:100470000E0EDBCF14F00F0EDBCF15F0010EE76E82
:100480000C0EDBCF16F00D0EDBCF17F0E750162663
:10049000000E17221450165C1550175801E2B1D007
:1004A000FD0EDBCFE6FFFE0EDBCFE6FF4E0EE66E67
:1004B000E66A98EC07F0E552E552E552E552FB0E8C
:1004C000DBCFE6FFFC0EDBCFE6FF4F0EE66EE66A03
:1004D00098EC07F0E552E552E552E552220EE66E41
:1004E000E66A4FEC07F0E552E552F50EDBCFE6FF8A
:1004F000F60EDBCFE6FF7DEC07F0E552E552DECFEE
:1005000014F0DDCF15F0D950080FE96EDACFEAFF0D
:100510001450EE261550ED22020EDBCF14F0030E20
:10052000DBCF15F0D9500A0FE96EDACFEAFF14508D
:10053000EE261550ED22080EDBCF14F0090EDBCFAE
:1005400015F00C0EDBCF16F00D0EDBCF17F01450AC
:10055000165C155017581FE20C0EDBCF14F00D0E71
:10056000DBCF15F0D950080FE96EDACFEAFF14504F
:10057000EE5E1550ED5A040EDBCF14F0050EDBCF06
:1005800015F0D950FD0FE96EFF0EDA20EA6E145017
:10059000EE261550ED220A0EDBCF14F00B0EDBCF4A
:1005A00015F00C0EDBCF16F00D0EDBCF17F014504C
:1005B000165C155017581FE20C0EDBCF14F00D0E11
:1005C000DBCF15F0D9500A0FE96EDACFEAFF1450ED
:1005D000EE5E1550ED5A060EDBCF14F0070EDBCFA2
:1005E00015F0D950FB0FE96EFF0EDA20EA6E1450B9
:1005F000EE261550ED220E0EDB2A0F0E01E3DB2A4C
:1006000037D7100EE15C03E200D0E16AE552E16EFB
:10061000E552E7CFD9FF1200D9CFE6FFE1CFD9FFEE
:10062000060EE126040EDB6A050EDB6AFA0EDBCF4E
:10063000E6FFFB0EDBCFE6FF83EC0FF0E552E55261
:10064000F350DF6E0A0EE76EFC0EDBCF14F0FD0EEA
:10065000DBCF15F0E7501426000E152214C0E6FF7C
:1006600015C0E6FFFE0EDBCFE6FF080EDF02F350FB
:10067000E552E724FF0FE66EE66AFC0EDBCFE6FFED
:10068000FD0EDBCFE6FFFE0EDBCFE6FFE66AB2EC47
:1006900007F0166E080EE15E1650010EDB6A0B0EB7
:1006A000F36E010EDBCFF4FFF350F45C01E3D4D022
:1006B000020EDB6ADF50F36E020EDBCFF4FFF35065
:1006C000F45C01E3C6D0020EDB50E76EFA0EDBCF1E
:1006D000E9FFFB0EDBCFEAFFE750E926000EEA2236
:1006E000EF50E00FE66ED950040FE96EDACFEAFF63
:1006F000E552E750EE6EED6A660E146E170E156E3B
:10070000000E166E040EDBCF17F0050EDBCF18F0CF
:10071000196A14501724F36E15501820F46E1650F1
:100720001920F86EF4CFF7FFF3CFF6FF0800F5506D
:10073000E66ED950040FE96EDACFEAFFE552E750D2
:10074000EE6EED6A360E196E110E1A6E000E1B6EED
:10075000040EDBCF1CF0050EDBCF1DF01E6A0B0E66
:100760000C6E0D6A0E6A1CC007F01DC008F01EC09A
:1007700009F04FEC0EF004C01CF005C01DF006C0DF
:100780001EF019501C24166E1A501D20176E1B5097
:100790001E20186E010EDBCF1FF0206A216A165052
:1007A0001F24F36E17502020F46E18502120F86E8D
:1007B000F4CFF7FFF3CFF6FF0800F5CF14F0156A7A
:1007C00014BE1568040E14C0DBFF050E15C0DBFF58
:1007D000030EDB6A080EF36E030EDBCFF4FFF3505B
:1007E000F45C34E2030EDBCFE6FF070EE552D8805F
:1007F000E754186E010E185204E0E846FE0B180686
:10080000FCE1166E176A16BE1768040EDB5016144C
:10081000146E050EDB501714156E145015100AE0F7
:10082000F80EDBCFE6FFF90EDBCFE6FF66DBE55225
:10083000E55209D0F60EDBCFE6FFF70EDBCFE6FF81
:100840005CDBE552E552030EDB2AC4D7020EDB2A3D
:1008500031D7010EDB2A23D7060EE15C02E2E16A02
:10086000E552E16EE552E7CFD9FF12008480050E14
:10087000E66EE66A6AEC08F0E552E55284900A0EEC
:10088000E66EE66A6AEC08F0E552E5528480808004
:1008900080868084140EE66EE66A6AEC08F0E55203
:1008A000E552010EE66EE66A000EE66EE66A40DB91
:1008B000E552E552E552E552010EE66EE66A6AEC53
:1008C00008F0E552E552A40EE66EA80EE66E030EA1
:1008D000E66EE66A2DDBE552E552E552E552010E81
:1008E000E66EE66AF7DBE552E552000EE66EE66A72
:1008F0000C0EE66EE66A1CDBE552E552E552E55267
:10090000010EE66EE66AE6DBE552E5520C0EE66E97
:10091000080EE66E0D0EE66EE66A0ADBE552E5525B
:10092000E552E552010EE66EE66AD4DBE552E55289
:10093000E66A2B0EE66E0E0EE66EE66AF9DAE55210
:10094000E552E552E552010EE66EE66AC3DBE5527A
:10095000E552B00EE66EE66A1E0EE66EE66AE8DA6C
:10096000E552E552E552E552010EE66EE66AB2DB6B
:10097000E552E5523F0EE66E2B0EE66E010EE66E78
:10098000E66AD6DAE552E552E552E552010EE66E28
:10099000E66AA0DBE552E552E66A060EE66E020E56
:1009A000E66EE66AC5DAE552E552E552E552010E19
:1009B000E66EE66A8FDBE552E552000EE66EE66A09
:1009C000100EE66EE66AB4DAE552E552E552E552FB
:1009D000010EE66EE66A7EDBE552E552700EE66ECB
:1009E000600EE66E110EE66EE66AA2DAE552E55298
:1009F000E552E552010EE66EE66A6CDBE552E55221
:100A0000000EE66EE66A050EE66EE66A91DAE552DB
:100A1000E552E552E552010EE66EE66A5BDBE55211
:100A2000E552000EE66EE66A060EE66EE66A80DACB
:100A3000E552E552E552E552010EE66EE66A4ADB02
:100A4000E552E5521C0EE66EEF0EE66E160EE66EF1
:100A5000E66A6EDAE552E552E552E552010EE66EBF
:100A6000E66A38DBE552E552030EE66EE66A170EDB
:100A7000E66EE66A5DDAE552E552E552E552010EB0
:100A8000E66EE66A27DBE552E552330EE66E020EAD
:100A9000E66E070EE66EE66A4BDAE552E552E5527F
:100AA000E552010EE66EE66A15DBE552E552000EF0
:100AB000E66EE66A0B0EE66EE66A3ADAE552E55253
:100AC000E552E552010EE66EE66A04DBE552E552B8
:100AD000000EE66EE66A0F0EE66EE66A29DAE55269
:100AE000E552E552E552010EE66EE66AF3DAE552AA
:100AF000E552000EE66EE66A410EE66EE66A18DA28
:100B0000E552E552E552E552010EE66EE66AE2DA9A
:100B1000E552E552000EE66EE66A420EE66EE66AC1
:100B200007DAE552E552E552E552010EE66EE66A55
:100B3000D1DAE552E552000EE66EE66A480EE66E40
:100B4000E66AF6D9E552E552E552E552010EE66E47
:100B5000E66AC0DAE552E5523F0EE66E010EE66E39
:100B6000490EE66EE66AE4D9E552E552E552E552F1
:100B7000010EE66EE66AAEDAE552E552000EE66E6A
:100B8000E66A4A0EE66EE66AD3D9E552E552E552C8
:100B9000E552010EE66EE66A9DDAE552E552000E78
:100BA000E66EE66A4B0EE66EE66AC2D9E552E5529B
:100BB000E552E552010EE66EE66A8CDAE552E55240
:100BC000E66AEF0EE66E440EE66EE66AB1D9E552CD
:100BD000E552E552E552010EE66EE66A7BDAE55231
:100BE000E552000EE66EE66A450EE66EE66AA0D9AC
:100BF000E552E552E552E552010EE66EE66A6ADA22
:100C0000E552E5523F0EE66E010EE66E460EE66ECA
:100C1000E66A8ED9E552E552E552E552010EE66EDE
:100C2000E66A58DAE552E552070EE66EE66E300ED9
:100C3000E66EE66A7DD9E552E552E552E552010ECF
:100C4000E66EE66A47DAE552E552040EE66E020EFB
:100C5000E66E310EE66EE66A6BD9E552E552E55274
:100C6000E552010EE66EE66A35DAE552E552040E0B
:100C7000E66E020EE66E320EE66EE66A59D9E5526F
:100C8000E552E552E552010EE66EE66A23DAE552D8
:100C9000E552020EE66E050EE66E330EE66EE66A6D
:100CA00047D9E552E552E552E552010EE66EE66A95
:100CB00011DAE552E552070EE66E050EE66E340EC9
:100CC000E66EE66A35D9E552E552E552E552010E87
:100CD000E66EE66AFFD9E552E552040EE66E020EB4
:100CE000E66E350EE66EE66A23D9E552E552E55228
:100CF000E552010EE66EE66AEDD9E552E552040EC4
:100D0000E66E020EE66E360EE66EE66A11D9E55222
:100D1000E552E552E552010EE66EE66ADBD9E55290
:100D2000E552020EE66E050EE66E370EE66EE66AD8
:100D3000FFD8E552E552E552E552010EE66EE66A4D
:100D4000C9D9E552E552020EE66E030EE66E3A0E82
:100D5000E66EE66AEDD8E552E552E552E552010E3F
:100D6000E66EE66AB7D9E552E552020EE66E030E6C
:100D7000E66E3B0EE66EE66ADBD8E552E552E552DA
:100D8000E552010EE66EE66AA5D9E552E552000E7F
:100D9000E66EE66A230EE66EE66ACAD8E552E552CA
:100DA000E552E552010EE66EE66A94D9E552E55247
:100DB000000EE66EE66A240EE66EE66AB9D8E552E3
:100DC000E552E552E552010EE66EE66A83D9E55238
:100DD000E552E66A800EE66E250EE66EE66AA8D853
:100DE000E552E552E552E552010EE66EE66A72D929
:100DF000E552E552000EE66EE66A4F0EE66EE66AD2
:100E000097D8E552E552E552E552000EE66EE66AE5
:100E10004E0EE66EE66A8CD8E552E552E552E55292
:100E2000220EE66EE66A3BD8E552E55218EF07F06F
:100E3000D9CFE6FFE1CFD9FF040EE1268082809072
:100E4000DE6A2C0EDE6E010EDE6EDD6ADD52DD52D4
:100E5000D9CFE9FFDACFEAFFD880000EEE54000EBA
:100E6000EE54000EEE54000EEE540EE283688268DB
:100E700080948084D9CFE9FFDACFEAFFEE06000E36
:100E8000EE5AEE5AEE5AE4D78080040EE15C02E29C
:100E9000E16AE552E16EE552E7CFD9FF1200D9CF02
:100EA000E6FFE1CFD9FF80928090FD0EDBCF14F0FA
:100EB000FE0EDBCF15F015C014F0156A1450836ECA
:100EC000FD0EDB50826E809480848080E552E7CFF7
:100ED000D9FF1200D9CFE6FFE1CFD9FF8082809001
:100EE000FE0EDB50836EFD0EDB50826E809480849C
:100EF0008080E552E7CFD9FF1200D9CFE6FFE1CFDE
:100F0000D9FF80828090FD0EDBCF14F0FE0EDBCF88
:100F100015F015C014F0156A1450836EFD0EDB50E9
:100F2000826E809480848080E552E7CFD9FF1200E2
:100F3000D9CFE6FFE1CFD9FFFD0EDBCFE6FFFE0EF6
:100F4000DBCFE6FFACDFE552E552FB0EDBCFE6FF81
:100F5000FC0EDBCFE6FFD1DFE552E552E552E7CFED
:100F6000D9FF1200D9CFE6FFE1CFD9FFF90EDBCFD1
:100F700016F0FA0EDBCF17F016C017F0166AFD0E4A
:100F8000DB501624146EFE0EDB501720156E14C0B5
:100F9000E6FF15C0E6FF440EE66EE66AC9DFE552DD
:100FA000E552E552E552FB0EDBCFE6FFFC0EDBCF50
:100FB000E6FF450EE66EE66ABBDFE552E552E55216
:100FC000E552F70EDBCFE6FFF80EDBCFE6FF460E6D
:100FD000E66EE66AADDFE552E552E552E552FD0EFA
:100FE000DBCFE6FFFE0EDBCFE6FF4E0EE66EE66AD7
:100FF0009FDFE552E552E552E552FB0EDBCFE6FFFF
:10100000FC0EDBCFE6FF4F0EE66EE66A91DFE5529F
:10101000E552E552E552220EE66EE66A40DFE55201
:10102000E552E552E7CFD9FF1200D9CFE6FFE1CF75
:10103000D9FF040EE1263F0EE66E010EE66EEF0EBE
:10104000E66EE66A000EE66EE66AE66EE66A8ADF3D
:10105000146E080EE15E1450DE6ADD6ADECF14F015
:10106000DDCF15F0D890155004E6400E145C010E4B
:10107000155826E2020EDB6A030EDB6A020EDBCF96
:1010800014F0030EDBCF15F0D890155004E6F00EE7
:10109000145C000E15580FE2FD0EDBCFE6FFFE0ECE
:1010A000DBCFE6FF2ADFE552E552020EDB2A030E14
:1010B00001E3DB2AE3D7DF2A010E01E3DB2ACED7E7
:1010C000040EE15C02E2E16AE552E16EE552E7CF2F
:1010D000D9FF1200D9CFE6FFE1CFD9FF040EE126F8
:1010E000DE6ADD6ADECF14F0DDCF15F0FD0EDBCF5A
:1010F00016F0FE0EDBCF17F015501718E8AE02D031
:10110000173404D01650145C175015580AE2010E1B
:10111000E66E91EC0FF0E552DF2A010E01E3DB2AC7
:10112000E1D7040EE15C02E2E16AE552E16EE552CC
:06113000E7CFD9FF120019
:0A11360000000000000000000000AF
:1011400000001818181818181800180000006C6C07
:1011500024000000000000000034347E34347E346B
:10116000340000183C6630180C663C180000006221
:10117000660C18306646000000386C6C383C6E64B3
:101180006E3A000018180800000000000000000C73
:10119000183030303030180C000030180C0C0C0CAB
:1011A0000C1830000000185A7E3C7E5A18000000CF
:1011B000000018187E181800000000000000000051
:1011C000000018180800000000007E000000000069
:1011D0000000000000000000181800000002060CCB
:1011E00018306040000000000018180000181800B7
:1011F00000000000181800001818080000060C185D
:10120000306030180C0600000000007E007E0000F8
:101210000000006030180C060C18306000003C66BE
:1012200066060C1818001800003C6666666E6E6E46
:10123000603C00003C303030303030303C0000004A
:10124000406030180C06020000003C0C0C0C0C0C2A
:101250000C0C3C0000183C66000000000000000080
:1012600000000000000000007E00001818100000C0
:101270000000000000000C181830603018180C0036
:101280000018181818001818181800003018180C32
:10129000060C1818300000324C000000000000005E
:1012A00000003C66666E7E7666663C000008187834
:1012B00018181818187E00003C6666060C18306670
:1012C0007E00003C6606061C0606663C00000C1C00
:1012D0003C6CCCFE0C0C1E00007E6660607C06063A
:1012E000663C00001C3060607C6666663C00007EE8
:1012F0006606060C1818181800003C6666663C6600
:1013000066663C00003C6666663E0606663C00007B
:10131000183C6666667E66666600007E6660607C77
:101320006666667C00007C6666667C6666667C0037
:10133000007E666060606060606000001C34343471
:10134000343434347E42007E6660607C6060667E49
:1013500000005A5A5A5A3C5A5A5A5A00003C6606D9
:10136000061C0606663C0000626262666E7A726265
:10137000620000086262666E7A72626200006666EF
:10138000666C786C66666600001E36363636363613
:10139000366600006262767E6A62626262000066A1
:1013A0006666667E6666666600003C6666666666BB
:1013B00066663C00007E6666666666666666000077
:1013C0007C6666667C6060606000003C66666060AB
:1013D0006066663C00007E18181818181818180067
:1013E00000666666663E0606663C0000183C5A5A71
:1013F0005A5A5A3C1800006666663C183C66666697
:10140000000064646464646464647E02006666660A
:10141000663E0606060600006A6A6A6A6A6A6A6AC0
:101420007E00006A6A6A6A6A6A6A6A7F01007030CE
:10143000303C323232323C000062626262726A6A6E
:101440006A7200006060607C666666667C00003CD4
:101450006606061E0606663C0000646E6A6A7A6AC4
:101460006A6E6400003E6666663E666666660000FA
:1014700000003C66063E66663A00003C6060607CA8
:101480006666663C000000007C66667C66667C00E2
:101490000000007E66606060606000003C0606063A
:1014A0003E6666663C000000003C66667E60663C08
:1014B000000000005A5A5A3C5A5A5A000000003C98
:1014C00066061C06663C000000006666666E766670
:1014D00066000018006666666E76666600000000AC
:1014E00066666C786C6666000000001E363636361E
:1014F0003666000000006262766A62626200000086
:10150000006666667E666666000000003C6666668B
:1015100066663C000000007E6666666666660000E1
:1015200000007C6666667C6060000000003C6660CF
:101530006060663C000000007E181818181818003B
:101540000000006666663E06663C00000000183C2F
:101550005A5A5A3C180000000066663C183C666601
:10156000000000006464646464647E02000000663D
:101570006666663E0606000000006A6A6A6A6A6A73
:101580007E000000006A6A6A6A6A6A7F01000000E1
:1015900070303C3636363C00000000626262726A8F
:1015A0006A72000000006060607C66667C0000007B
:1015B000003C66061E06663C00000000646A6A7A0B
:1015C0006A6A64000000003E66663E666666000069
:1015D000786C66666666666C7800007E6660607C25
:1015E0006060606000003C666660606E66663C003D
:1015F000007E181818181818187E00007E66060657
:10160000060666663C000060606060606060667E42
:1016100000006262727A6E6662626200003C666618
:101620006666666C6E3A00007C6666667C66666618
:101630006600003C6660603C0606663C000066662C
:101640006666666666663C00006666666666666630
:101650003C18000062626262626A7E766200006626
:101660006666663C1818181800007E66060C18306E
:1016700060667E00007030303C363636367C0000C6
:101680000E0C0C3C6C6C6C6C3E000018343030302E
:101690007C303078000000003A6C6C7C3C0C6C387C
:1016A00000006060606C76666666000000180038B6
:1016B000181818183C00000006001E0606063636EC
:1016C0001C00606060666C786C66660000381818F4
:1016D00018181818183C000000007C6A6A6A6A6AC8
:1016E0006A000000007C66666666666600000000B0
:1016F0003E6666663E0606000000005C3636303008
:101700003030000000003C6630180C663C000018C9
:101710001818183E1818180E000000006666666655
:1017200066663C0000000066666666663C1800005F
:10173000000062626A6A6A6A3400000000666666D7
:10174000663E06663C0000007E660C1830667E0031
:10175000003C66663C0000000000003C6681A5A5D8
:101760008199A581663C000102030405060708096A
:101770000A0B0C0D0E0F2122232425262728292AA7
:10178000101112131415162B2D3C6B306C6D386E26
:101790006F35703771393B7273743D757677407869
:1017A000791718191A1B1C4B7A5C7B507C7D7E7F45
:1017B0008081828384595B85868788898A8B608C47
:1017C0008D1D1E1F208F8F8F8F8F8F8F8F8F8F8FED
:1017D0008F8F8F8F8F8F8F8F8F8F8F8F8F8F8F8F19
:1017E0008F8F8F8F8F8F8F8F8F8F8F8F8F8F8F8F09
:1017F0008F8F8F8F8F8F8E8F8F8F8F8F8F8F8F8FFA
:101800008F8F8F8F8F8F2B2C2D2E2F3031323334A3
:1018100035363738393A3B3C3D3E3F404142434400
:1018200045464748494A4B4C4D4E4F5051525354F0
:1018300055565758595A5B5C5D5E5F6061626364E0
:0618400065666768696A35
:0A184600DACFE4FFE2CFDAFFE6524A
:10185000F250040B08E0F250200B05E0E10ED76EC9
:101860007A0ED66EF29400D0E552E5CFDAFF110081
:10187000D9CFE6FFE1CFD9FFE652E66A05EC0FF0DB
:10188000E552DF6EDF50DF2AE66EE66A30EC0FF0DD
:10189000E552E552DFCFE6FFE66A15EC0FF0E552C0
:1018A000E552806A816A826A836A846AF00E926E67
:1018B0009368946A956A966A3F0E936ED08EF1840F
:1018C000F28AF294F28EF29CD59CD59AD596D58464
:1018D000D582D580E10ED76E7A0ED66E36EC04F046
:1018E00000D0E552E552E7CFD9FF1200D9CFE6FF8D
:1018F000E1CFD9FF020EE126DE6ADD6A720ED36EF9
:10190000400E9B6E0F0EC16EB3DF0DD875D8A2D9F5
:10191000FED7020EE15C02E2E16AE552E16EE552B9
:10192000E7CFD9FF120088C0E6FF89C0E6FF84C078
:10193000E6FF85C0E6FF82C0E6FF83C0E6FF84C005
:10194000E6FF85C0E6FF80C0E6FF81C0E6FF51EC00
:1019500001F0146E0A0EE15E145088C0E6FF89C0E3
:10196000E6FF86C0E6FF87C0E6FF80C0E6FF81C0D5
:10197000E6FF84C0E6FF85C0E6FF80C0E6FF81C0C9
:10198000E6FF51EC01F0146E0A0EE15E145088C0BF
:10199000E6FF89C0E6FF86C0E6FF87C0E6FF82C09B
:1019A000E6FF83C0E6FF84C0E6FF85C0E6FF82C095
:1019B000E6FF83C0E6FF51EC01F0146E0A0EE15E13
:1019C000145088C0E6FF89C0E6FF86C0E6FF87C0E6
:1019D000E6FF82C0E6FF83C0E6FF86C0E6FF87C061
:1019E000E6FF80C0E6FF81C0E6FF51EC01F0146E17
:1019F0000A0EE15E1450120088C0E6FF89C0E6FFBF
:101A00008EC0E6FF8FC0E6FF90C016F091C017F0C1
:101A1000010E0F0B05E0D89017321632E806FBE1F5
:101A200000018C511624146E8D511720156E14C0B0
:101A3000E6FF15C0E6FF8EC0E6FF8FC0E6FF90C050
:101A40001AF091C01BF0010E0F0B05E0D8901B326D
:101A50001A32E806FBE100011A508C5D186E1B502B
:101A60008D59196E18C0E6FF19C0E6FF51EC01F060
:101A70001C6E0A0EE15E1C5012008AC0E6FF8BC08D
:101A8000E6FF8EC0E6FF8FC0E6FF90C016F091C063
:101A900017F0010E0F0B05E0D89017321632E8064A
:101AA000FBE100018C511624146E8D511720156E28
:101AB00014C0E6FF15C0E6FF8EC0E6FF8FC0E6FF4C
:101AC00090C01AF091C01BF0010E0F0B05E0D890EA
:101AD0001B321A32E806FBE100011A508C5D186EC9
:101AE0001B508D59196E18C0E6FF19C0E6FF51EC66
:101AF00001F01C6E0A0EE15E1C501200D9CFE6FF09
:101B0000E1CFD9FFFD0EDBCF14F0FE0EDBCF15F0D9
:101B1000153404E214500008000E155443E290C03E
:101B200018F091C019F0010E0F0B05E0D890193292
:101B30001832E806FBE100018C511824166E8D5115
:101B40001920176EFD0EDB501624146EFE0EDB50AE
:101B50001720156E1450825D1550835918E290C0FD
:101B600014F091C015F0010E0F0B05E0D89015325E
:101B70001432E806FBE114500001825D8C6F1550B1
:101B800083598D6F010E8C5F000E8D5B0AD0FD0EA8
:101B9000DBCF08F0FE0EDBCF09F008508C27095090
:101BA0008D2342D090C018F091C019F0010E0F0B98
:101BB00005E0D89019321832E806FBE10001185010
:101BC0008C5D166E19508D59176EFD0EDB50162464
:101BD000146EFE0EDB501720156E8051145C81517F
:101BE000155818E290C014F091C015F0010E0F0BBB
:101BF00005E0D89015321432E806FBE1000180516F
:101C000014248C6F815115208D6F010E8C27000ECE
:101C10008D230AD0FD0EDBCF08F0FE0EDBCF09F0DE
:101C200008508C2709508D23E552E7CFD9FF1200C9
:101C300024DF040EE66EE66A61DFE552E552FCEF52
:101C40000CF01BDFFC0EE66EE66858DFE552E5524D
:101C5000FCEF0CF0D9CFE6FFE1CFD9FFE652811CB3
:101C60003F0BDF6EDFA206D0070EE66E4EEC0FF0E4
:101C7000E552E7DFDFAA06D0070EE66E4EEC0FF066
:101C8000E552D6DFDFA800D0DFA400D0DFA600D069
:0E1C9000DFA000D0E552E552E7CFD9FF1200E9
:021C9E0009C07B
:101CA00013F008C012F007C011F007500C02F4CF77
:101CB00005F0F3CF04F008500D02F4CF07F0F3CF96
:101CC00006F00C02F3500526F4500622E86A0722BB
:101CD00011500D02F3500526F4500622E86A07223F
:101CE00009500C02F3500626F450072209500D0249
:101CF000086AE86A0822F3500726F45008221150B7
:101D00000E02F3500626F4500722096AE86A0822F8
:101D1000092212500E02F3500726F4500822E86AF6
:101D2000092213500E02F3500826F4500922000C29
:101D300008C012F008500D02F4CF07F0F3CF06F000
:101D400009500E02F4CF09F0F3CF08F00D02F35062
:101D50000726F4500822E86A092212500E02F350B6
:0C1D60000726F4500822E86A0922000C53
:041D6C000E0EF66EF3
:101D7000000EF76E000EF86E00010900F550976F27
:101D80000900F550986F03E1976701D03DD0090035
:101D9000F550926F0900F550936F0900F550946F5C
:101DA00009000900F550E96E0900F550EA6E0900D6
:101DB00009000900F550956F0900F550966F09006C
:101DC0000900F6CF99F0F7CF9AF0F8CF9BF092C0C8
:101DD000F6FF93C0F7FF94C0F8FF0001955302E1AE
:101DE000965307E00900F550EE6E9507F8E2960766
:101DF000F9D799C0F6FF9AC0F7FF9BC0F8FF000122
:0A1E00009707000E985BBFD7120091
:061E0A00D9CFE6FFE1CF95
:101E1000D9FFFE0EDB50A96EA69EA69CA680A850F8
:101E200000D0E552E7CFD9FF1200D9CFE6FFE1CFCE
:101E3000D9FFFE0EDB50A96EFD0EDB50A86EA69EEC
:101E4000A69CA684F29E550EA76EAA0EA76EA68229
:101E5000A1A8FED7F28EA694E552E7CFD9FF1200D3
:101E6000FE0EE3CF9CF0FF0EE3CF9DF012009DC06D
:101E700009F09CC008F0350E0D6E450E0E6E98EC04
:101E80000EF0062AE86A0722079E07C09DF006C0EA
:0C1E90009CF09CC0F3FF9DC0F4FF12000A
:041E9C00FF0EE35002
:101EA000236EEF0E01D0F30EE76EE72E55EF0FF025
:101EB0000C0E226EE76AE72E5BEF0FF0222E5AEF30
:0A1EC0000FF0232E53EF0FF0120075
:061ECA00000EF36E00EEB5
:101ED00000F0060E01D81200EA6002D0EE6AFCD7CC
:0A1EE000F350E9601200EE6AFCD72F
:061EEA0015EE00F025EEEC
:101EF00000F0F86A019CB6EC0EF003EC00F076EC12
:061F00000CF0FBD71200FB
:0A1F0600FE0EE3CFE9FFFF0EE3CF6C
:101F1000EAFFF36AF46AEE5203E0F34AF42AFBD7CD
:021F20001200AD
:0E1F2200FF0EE350E84E1200000000D000D089
:081F300000D0E82EFAD71200E0
:021F38000100A6
:061F3A000500EB000500AC
:0C1F40003B010000FFFF78000A002300B6
:020000040030CA
:0100010008F6
:0100020001FC
:010003001EDE
:010005008179
:010006008178
:00000001FF
